:020000040000FA
:0600000027EF05F01200DD
:0A00060001006C0A00006000000019
:0400100027000000C5
:0C001400D9CFE6FFE1CFD9FF040EE126B2
:10002000DE6ADD6ADECF14F0DDCF15F0FD0EDBCF2A
:1000300016F0FE0EDBCF17F01650145C1750155853
:100040001AE2020EDB6A030EDB6A020EDBCF14F04B
:10005000030EDBCF15F0880E145C130E155806E264
:10006000020EDB2A030E01E3DB2AEFD7DF2A010EA3
:1000700001E3DB2AD7D7040EE15C02E2E16AE55234
:10008000E16EE552E7CFD9FF12000F0EC16E9284E8
:1000900092869288928A946A92909282A2EC04F05C
:1000A00019EC03F01EEC03F0F3CF91F0F4CF92F0D3
:1000B00091C093F092C094F0180E0D6E0E6A93C02A
:1000C00008F094C009F005EC02F008C093F009C0F4
:1000D00094F0640E086E096A93C00DF094C00EF09F
:1000E0002BEC02F006C093F007C094F00001E80E7C
:1000F000D8809357030E9457956B966B0C0E96AF62
:1001000002D0D89003D0955D000E965910E2600E93
:100110009525E96E000E9621EA6EEF50E66E7AECB8
:1001200004F0E5520001952B000E9623E7D70A0E46
:100130000D6E0E6A93C008F094C009F005EC02F051
:1001400008C093F009C094F08E0EE66E8EEC04F0B9
:10015000E55293C014F094C015F00A0E0D6E0E6AAD
:1001600014C008F015C009F005EC02F004C014F04A
:1001700005C015F0300E1424E66E7AEC04F0E5525A
:100180000A0E0D6E0E6A93C008F094C009F005ECDB
:1001900002F008C093F009C094F08D0EE66E8EEC6C
:1001A00004F0E55293C014F094C015F00A0E0D6EE1
:1001B0000E6A14C008F015C009F005EC02F004C086
:1001C00014F005C015F0300E1424E66E7AEC04F03D
:1001D000E5528F0EE66E8EEC04F0E552250EE66ECB
:1001E0007AEC04F0E552C80EE66EE66A13DFE552DB
:1001F000E552010EE66E8EEC04F0E5528050200BC5
:100200003DE18050100B3AE18050080B37E0805000
:10021000040B34E194928B828B80560EE66E7AEC5E
:1002200004F0E552610EE66E7AEC04F0E55200014E
:10023000956B966B080E96AF02D0D89003D0955D63
:10024000000E965910E26D0E9525E96E000E96216E
:10025000EA6EEF50E66E7AEC04F0E5520001952B61
:10026000000E9623E7D7C80EE66EE66AD3DEE552A7
:10027000E552010EE66E8EEC04F0E5528050200B44
:100280003EE08050100B3BE18050080B38E080507E
:10029000040B35E1948294908B928B90560EE66E0F
:1002A0007AEC04F0E552610EE66E7AEC04F0E55269
:1002B0000001956B966B080E96AF02D0D89003D0D4
:1002C000955D000E965910E27A0E9525E96E000EA6
:1002D0009621EA6EEF50E66E7AEC04F0E5520001EA
:1002E000952B000E9623E7D7C80EE66EE66A92DEDF
:1002F000E552E552010EE66E8EEC04F0E5528050B8
:10030000200B0BE18050100B08E08050080B05E03B
:100310008050040B02E194948B848050200B0BE0FE
:100320008050100B08E08050080B05E08050040B53
:0A03300002E194948B94B4D61200FD
:06033A00019E08D0019EA7
:1003400009AE05D0086C091EE86A0922018E09C0B1
:1003500003F008C002F0136A126A8E0E046E056A7A
:10036000A3EF02F0016ADFEC02F0F7EC02F001B655
:1003700087EF02F001A205D001BA87EF02F08EEFFD
:1003800002F001BA9AEF02F001A005D001B887EFA0
:1003900002F09AEF02F001B88EEF02F0056A7F0ECC
:1003A0000A24046EE86A05220F50045EE86A055AC2
:1003B0001A0E106E0A6A126A136A026A036A0C50F5
:1003C000075E0D50085A0E50095A000E0A5A09E7E6
:1003D0000C5007260D5008220E500922000E0A224A
:1003E00001D0128AD8900736083609360A36D890D6
:1003F0001236133602360336102EE1D70950081094
:100400000710D8A4128AA3EF02F0006A0EAE0EEF16
:1004100002F00D6C0E1EE86A0E22001E09AE16EFE9
:1004200002F0086C091EE86A0922001E01EC05F0C2
:1004300009BE26EF02F000AE000C086C091EE86A47
:100440000922046C051EE86A0522000C00BE1DEF9F
:1004500002F00188FF0C09C013F008C012F0085028
:100460000D02F4CF07F0F3CF06F009500E02F4CFDF
:1004700009F0F3CF08F00D02F3500726F4500822DC
:10048000E86A092212500E02F3500726F45008229F
:10049000E86A09220EAE51EF02F01250085E1350C6
:1004A000095A13AE000C0D50085E0E50095A000C8C
:1004B000016ADFEC02F001B662EF02F001A20ED099
:1004C00001B405D07F0E096EFF0E086E1FD0800E9E
:1004D000096E086A1BD0096A086A18D001B0FBD7F8
:1004E0008F0E0A60EDD77E0E0A64F5D78E0E0A5C79
:1004F00005E0D890093208320A2AF8D701A406D0BC
:10050000086C091EE86A092209AEE5D712007F0EC1
:100510000A6EFF0E096E086E076E12007F0E01BE96
:10052000FF0E0A6E02D07F0E0A6E800E096E086AF8
:10053000076AF3D701AE04D0800E0A6E096AF7D7B6
:100540000A6A096AF4D70350021013101210F8E077
:1005500005BEF0D703BE0CD004500510EBE0D890D8
:1005600012361336023603360406D8A00506F2D733
:100570000550D4E10428D2E012AE11D07F0E12143F
:1005800002E113A00CD0132AE86A0222032207E337
:10059000D880033202321332042A0428BFE0045008
:1005A000C9E013C007F002C008F00334096E04303C
:1005B0000A6E09320A9E01BE0A8E8DEF02F00936DC
:1005C0000A3602E30184017E06E101800A6A096AB3
:1005D000086A076A12000A2803E0D880093212006C
:1005E000D890093202E101821200018612000E3613
:1005F0000F3602E3018C017E06E101880F6A0E6A64
:100600000D6A0C6A12000F2803E0D8800E32120027
:0A061000D8900E32EAE1018A1200D0
:06061A00CD6ACF68D10E8D
:10062000CE6ECD809EA0FED7CD90CF6ACE6A9E9032
:100630001200CD6A8980F1DF89901200D9CFE6FFE0
:10064000E1CFD9FF080EE12680A2FED7CD8080B28F
:10065000FED7CD90CF50DE6EDD6ACE50E66ED9501B
:10066000020FE96EDACFEAFFE552E750EE6EED6A6F
:10067000DECF14F0DDCF15F014C015F0146A14C0ED
:10068000DEFF15C0DDFF020EDBCF16F0030EDBCF61
:1006900017F0DE501610146EDD501710156E14C0D2
:1006A00008F015C009F09FEC01F0040E07C0DBFF55
:1006B000050E08C0DBFF060E09C0DBFF070E0AC0EF
:1006C000DBFF040EDBCF14F0050EDBCF15F0060EBA
:1006D000DBCF16F0070EDBCF17F00C6A0D6A680E41
:1006E0000E6E420E0F6E14C007F015C008F016C053
:1006F00009F017C00AF0B2EC01F0040E07C0DBFFEE
:10070000050E08C0DBFF060E09C0DBFF070E0AC09E
:10071000DBFF040EDBCF07F0050EDBCF08F0060E83
:10072000DBCF09F0070EDBCF0AF058EC02F008C06F
:1007300014F009C015F014C0F3FF15C0F4FF080E43
:10074000E15C03E200D0E16AE552E16EE552E7CFF9
:10075000D9FF1200D9CFE6FFE1CFD9FF010EE66E37
:100760008EEC04F0E552820EE66E8EEC04F0E5525B
:10077000FD0EDBCF14F0FE0EDBCF15F00A0E0D6E72
:100780000E6A14C008F015C009F001EC05F004C0B1
:1007900014F005C015F0300E1424E66E7AEC04F067
:1007A000E5520A0E146E156AFD0EDBCF08F0FE0E40
:1007B000DBCF09F014C00DF015C00EF001EC05F010
:1007C000FD0E08C0DBFFFE0E09C0DBFF810EE66EEA
:1007D0008EEC04F0E552FD0EDBCF14F0FE0EDBCF05
:1007E00015F00A0E0D6E0E6A14C008F015C009F05F
:1007F00001EC05F004C014F005C015F0300E14240F
:10080000E66E7AEC04F0E5520A0E146E156AFD0EDF
:10081000DBCF08F0FE0EDBCF09F014C00DF015C0E1
:100820000EF001EC05F0FD0E08C0DBFFFE0E09C066
:10083000DBFF800EE66E8EEC04F0E552FD0EDBCFA2
:1008400014F0FE0EDBCF15F00A0E0D6E0E6A14C00A
:1008500008F015C009F001EC05F004C014F005C063
:1008600015F0300E1424E66E7AEC04F0E552FD0E1D
:0E087000DB6AFE0EDB6AE552E7CFD9FF12000D
:02087E00D9CFD0
:10088000E6FFE1CFD9FF040EE126020EDB6A030E7C
:10089000DB6A020EDBCF14F0030EDBCF15F0FD0E8A
:1008A000DBCF16F0FE0EDBCF17F01650145C17509E
:1008B000155816E2DE6ADD6ADECF14F0DDCF15F0E2
:1008C000050E145C000E155805E2DF2A010E01E347
:1008D000DB2AF2D7020EDB2A030E01E3DB2AD9D78B
:1008E000040EE15C02E2E16AE552E16EE552E7CF17
:1008F000D9FF1200D9CFE6FFE1CFD9FFFE0EDB50C2
:10090000816E838C838E320EE66EE66AB8DFE55226
:10091000E552839EE552E7CFD9FF1200D9CFE6FF1B
:10092000E1CFD9FFFE0EDB50816E839C838E320EA9
:10093000E66EE66AA4DFE552E552839EE552E7CF14
:10094000D9FF1200936A959C959E380EE66EE6DFFD
:10095000E5520C0EE66EE2DFE552800EE66EDEDF5B
:04096000E55212004A
:0C096400060EF66E000EF76E000EF86E28
:1009700000010900F5508C6F0900F5508D6F03E1FF
:100980008C6701D03DD00900F550876F0900F55004
:10099000886F0900F550896F09000900F550E96E6C
:1009A0000900F550EA6E090009000900F5508A6F48
:1009B0000900F5508B6F09000900F6CF8EF0F7CFD4
:1009C0008FF0F8CF90F087C0F6FF88C0F7FF89C09E
:1009D000F8FF00018A5302E18B5307E00900F5504C
:1009E000EE6E8A07F8E28B07F9D78EC0F6FF8FC04C
:1009F000F7FF90C0F8FF00018C07000E8D5BBFD79A
:020A00001200E2
:0E0A0200056A046A100EE76ED89008360936B1
:100A1000043605360D50045C0E50055805E30D50A4
:0E0A2000045E0E50055A082AE72EF0D7120089
:020A2E00000EB8
:100A3000F36E00EE00F0080E01D81200EA6002D05A
:0E0A4000EE6AFCD7F350E9601200EE6AFCD7B4
:020A4E0013EEA5
:100A500000F023EE00F0F86A019CB2EC04F035ECF3
:0A0A600005F045EC00F0FBD7120092
:020A6A00120078
:040A6C0057617465F5
:100A700072204C6576656C3D0056616C7665204F42
:100A80006E000000000056616C7665204F666600BF
:030A900000000063
:00000001FF
